:020000040800F2
:10000000A00800200D0100086D130008511200081F
:10001000491300081B0200089516000800000000A4
:10002000000000000000000000000000971300081E
:100030001D020008000000006F130008991300085B
:1000400027010008270100082701000827010008F0
:1000500027010008270100082701000827010008E0
:1000600027010008270100082701000827010008D0
:1000700027010008270100082701000827010008C0
:1000800027010008270100082701000827010008B0
:1000900027010008270100082701000827010008A0
:1000A0002701000827010008270100082701000890
:1000B0002701000827010008270100082701000880
:1000C0002701000827010008270100082701000870
:1000D00027010008891600082701000827010008E9
:1000E000270100082701000827010008DFF810D0C9
:1000F00000F072F800480047DD1D0008AFF30080F3
:10010000A008002080F308880847000006488047C0
:1001100006480047FEE7FEE7FEE7FEE7FEE7FEE7EC
:10012000FEE7FEE7FEE7FEE705140008ED00000825
:10013000202A04DB203A21FA02F00021704721FA3C
:1001400002F3D040C2F120029140084319467047A3
:10015000D2B201E000F8012B491EFBD27047002209
:10016000F6E710B513460A4604461946FFF7F0FFB6
:10017000204610BD2DE9F05F0546002092469B46C3
:1001800088460646814640241BE0284641464746AD
:100190002246FFF7CDFF53465A46C01A914110D36D
:1001A00011461846224600F029F82D1A67EB01087F
:1001B0004F4622460120002100F020F817EB0009ED
:1001C0004E41201EA4F10104DFDC484631462A4698
:1001D0004346BDE8F09F0000064C074D06E0E0688E
:1001E00040F0010394E8070098471034AC42F6D37E
:1001F000FFF780FF481E0008681E0008202A04DB65
:10020000203A00FA02F1002070479140C2F1200329
:1002100020FA03F3194390407047FEE7704772B627
:10022000FEE7000006490020C8610648016941F068
:1002300004010161016941F0400101617047000062
:100240007800002000200240064A0021D1610649C2
:100250000A6942F002020A614861086940F0400000
:10026000086170477800002000200240044B002203
:10027000DA61044A136943F0010313610180704796
:10028000780000200020024014480022C168CB06FC
:10029000134904D5CA6942F00202CA611022C36838
:1002A0005B0705D5CB6943F00103CB6142F0040243
:1002B000C369DB0707D0CB6943F00403CB61C16995
:1002C00021F00101C161A2F58071013901D0C26044
:1002D0007047C16921F00101C161704700200240EF
:1002E0007800002070B5054600F048FA0646114C2B
:1002F00009E0681C07D025B100F040FA801BA84235
:1003000001D9032070BDE068C007F2D1E068800623
:1003100001D52020E060E068C00605D4E069C00790
:1003200002D1E068400703D5FFF7AEFF012070BDA2
:10033000002070BD0020024010B590F8211000226E
:10034000022905D00421816380F82020012010BDFE
:1003500001680B6823F00E030B6001680B6823F043
:1003600001030B6090F84030C46B012101FA03F3E4
:10037000636080F8211080F82020104610BD000036
:1003800010B590F821100024022903D004218163C4
:1003900001243DE001680A6822F00E020A6001684B
:1003A0000A6822F001020A601A4A0168914201D1EA
:1003B000012121E0174A1432914201D110211BE0A2
:1003C000144A2832914201D1891515E0114A3C3274
:1003D000914201D189140FE00E4A5032914202D16C
:1003E0004FF4803108E00B4A6432914202D14FF45D
:1003F000801101E04FF08071064A083A51600121F6
:1004000080F82110002180F82010416B01B188474D
:10041000204610BD08000240064810B54FF0FF31DD
:10042000016100220261C160C26000F0E7F90020B2
:1004300010BD0000001002402DE9F0470546264897
:100440000F460126017E01290FD001218146017648
:100450002868DFF888804CF25034022808D0A24681
:100460002046FFF73FFFA8B131E00220BDE8F0874A
:100470002046FFF737FF08BB0120FFF7D3FE2046D9
:10048000FFF730FFD8F81010064621F00401C8F835
:1004900010101CE04FF0FF303860AC6811E02046CF
:1004A000FFF7D2FE5046FFF71DFFD8F810100600E8
:1004B00021F00201C8F8101001D03C6007E004F5FB
:1004C0008064D5E9020100EB8120A042E7D8002139
:1004D00089F818103046C9E7780000200020024053
:1004E0000348016941F0800101610020704700006C
:1004F000002002402DE9F05F07461C488846002492
:10050000017E15461E46012909D00121814601764A
:100510004CF2503A5046FFF7E5FE18B122E00220B7
:10052000BDE8F09F012F02D0022F00D00427D34650
:10053000DFF83CA0220128463146FFF7F9FD81B2E1
:1005400008EB4400FFF792FE5846FFF7CBFEDAF8BF
:10055000102022F00102CAF8102018B9641CE4B27D
:10056000BC42E7D3002289F81820D9E778000020A0
:1005700000200240064900200A69120607D5054AF4
:100580004A60054A4A600969090600D5012070479A
:100590000020024023016745AB89EFCD2DE9F84FDC
:1005A000DFF8B8910024A9F1040B23460F2709F1C5
:1005B000040AABF1040EC9E00125A5402A40AA4275
:1005C0007DD1674ED1F804C0ACEB0608B44532D0FB
:1005D00014DCBCF1030F3AD009DCBCF1000F2AD0C7
:1005E000BCF1010F1CD0BCF1020F31D11DE0BCF1F8
:1005F000110F17D0BCF1120F2AD119E0B8F5881FDE
:1006000019D006DCB8F5803F15D0B8F5801F1FD192
:1006100011E0B8F5001F0ED0B8F5041F18D10AE09C
:10062000CB6815E0CB681B1D12E0CB6808330FE0E8
:10063000CB680C330CE08B682BB1012B4FF0080317
:1006400003D0456104E0042302E0056100E00023DB
:10065000FF2A01D8064601E000F104064FEA8405AE
:1006600001D9A5F12005D6F8008007FA05FC28EA93
:100670000C0803FA05F548EA0508C6F800804D683D
:10068000ED0062D5374DAE6946F00106AE61AD6949
:1006900024F0030605F001050095334D06EB050C2B
:1006A000DCF80850A607360F07FA06F825EA080511
:1006B000DFF8B880404503D14FF0000817E044E070
:1006C000DFF8AC80404502D14FF001080FE0DFF8C1
:1006D000A480404502D14FF0020808E0DFF898807E
:1006E000404502D14FF0030801E04FF0040808FA3A
:1006F00006F848EA0508CCF808804D68D9F800608B
:10070000ED024D4601D5164300E096432E604D683C
:10071000DAF80060AD02554601D5164300E0964375
:100720002E604D68DBF80060AD035D4601D51643D1
:1007300000E096432E604D68DEF80060ED037546DC
:1007400001D5164300E096432E60641C0D682A46CE
:10075000E5407FF431AFBDE8F88F000008040140A8
:10076000000011100010024000000140000801408C
:10077000000C014000100140001401400148806855
:100780007047000000000020024881680278114490
:100790008160704700000020074810B5016841F0F3
:1007A00010010160032000F077F80F2000F006F838
:1007B00000F026F8002010BD0020024070B50D4D5D
:1007C00004464FF47A712878B1FBF0F00A490968C1
:1007D000B1FBF0F000F0DEFA48B9102C07D200228D
:1007E0002146501E00F038F800206C6070BD0120DA
:1007F00070BD0000000000200C00002070470000C9
:100800000C4808B5816941F001018161816901F0FD
:1008100001010091C16941F08051C161C06900F0DE
:10082000805000900448416821F0E06141F000717F
:10083000416008BD0010024000000140002809DBB3
:1008400000F01F02012191404009800000F1E020EA
:10085000C0F8001170470000F0B40E4B1B680C4646
:10086000C3F30223C3F10705042D00D90425191D84
:10087000072901D2002300E0DB1E012606FA05F15C
:10088000491E214099409E40761E16403143F0BCDF
:1008900000F012BF0CED00E0064900F00702086806
:1008A0004FF6FF03184040EA0220034A1043086055
:1008B000704700000CED00E00000FA052DE9F0475C
:1008C0000F46050061D0434E306800F00700B84283
:1008D00009D2306820F0070038433060306800F0FB
:1008E0000700B84251D128683B4C810712D5400718
:1008F00003D5606840F4E06060602878000703D5A5
:10090000606840F4605060606068A96820F0F000A2
:10091000084360602878C00728D06868012810D094
:100920002168022810D0890700292EDA616821F099
:10093000030101436160FFF721FF804641F28839DE
:100940000DE021688903EFE78901EDE7FFF716FF66
:10095000A0EB0801494502D90320BDE8F087606893
:10096000696800F00C00B0EB810FEFD1306800F047
:100970000700B8420BD9306820F0070038433060D8
:10098000306800F00700B84201D00120E5E7287880
:10099000400705D56068E96820F4E06008436060BE
:1009A0002878000706D56068296920F4605040EA7D
:1009B000C100606000F038F86168084AC1F30311B3
:1009C000515CC8400649086006480068FFF7F6FE1B
:1009D0000020C2E700200240001002402E1E000846
:1009E0000C00002004000020044805490068496804
:1009F000044AC1F30221515CC84070470C0000203A
:100A0000001002403E1E000804480549006849687D
:100A1000044AC1F3C221515CC84070470C00002059
:100A2000001002403E1E00080E4A51680E4801F0B8
:100A30000C03042B11D0082B0FD10C48C1F38343B6
:100A4000C903C05C0AD55168084AC1F34041921EEF
:100A5000515C054A5043B0FBF1F0704704494843EC
:100A6000704700000010024000127A001E1E0008AD
:100A700000093D002DE9F84F040070D02078C04DEA
:100A8000C00749D06868C0F38100012807D06868B2
:100A9000C0F38100022809D16868C00306D5286820
:100AA000800339D560680028E7D035E06068B0F58C
:100AB000803F0BD010B1B0F5A02F11D0286820F4E2
:100AC00080302860286820F4802002E0286840F404
:100AD00080302860606890B1FFF750FE06460AE05B
:100AE000286840F480202860F0E700BFFFF746FE4A
:100AF000801B642873D828688003F7D50CE0FFF7C3
:100B00003DFE064605E000BFFFF738FE801B642867
:100B1000F0D828688003F7D420789A4E80074FF0E9
:100B200001094FF0000839D5686810F00C0F07D0A4
:100B30006868C0F38100022809D16868C00306D440
:100B40002868800714D52069012808D110E02069A1
:100B5000B0B1C6F80090FFF711FE074605E00AE1C4
:100B6000FFF70CFEC01B0228C4D828688007F7D501
:100B70002868616920F0F80040EAC10028600DE0B3
:100B8000C6F80080FFF7FAFD074604E0FFF7F6FD20
:100B9000C01B022823D828688007F7D420780007D4
:100BA0002CD57948A169D9B1C0F80090FFF7E6FDCE
:100BB000074604E0FFF7E2FDC01B02280FD8686A71
:100BC0008007F7D571484FF4FA510068B0FBF1F097
:100BD000009000BF0098411E0091FAD20EE080E024
:100BE000C0F80080FFF7CAFD074604E0FFF7C6FD26
:100BF000C01B022875D8686A8007F7D420784007A0
:100C000060D5E8690027C00008D4E86940F080504A
:100C1000E861E869012700F0805000905C480168B5
:100C2000C90513D40168834641F480710160FFF760
:100C3000A5FD824606E000BFFFF7A0FDA0EB0A007D
:100C400064284ED8DBF80000C005F5D5E06801281F
:100C50000AD008B1052813D0286A20F001002862C4
:100C6000286A20F0040002E0286A40F001002862AF
:100C7000E06841F2883B98B1FFF780FD82460BE0C7
:100C8000286A40F004002862EEE700BFFFF776FD17
:100C9000A0EB0A0159455AD8286A8007F6D50CE01E
:100CA000FFF76CFD824605E0FFF768FDA0EB0A0147
:100CB00059454CD8286A8007F6D41FB1E86920F05E
:100CC0008050E861E06988B36968C1F38101022955
:100CD00044D00228C6F8608004D0FFF74FFD0446D8
:100CE00038E034E0FFF74AFD074604E0FFF746FD31
:100CF000C01B02282BD828688001F7D4206AB0F5E1
:100D0000803F05D16868A16820F40030084368601E
:100D1000D4E908010843696821F474110843686044
:100D2000C6F86090FFF72AFD044606E025E000BF04
:100D3000FFF724FD001B022809D828688001F7D599
:100D40001BE000BFFFF71AFD001B022802D9032099
:100D5000BDE8F88F28688001F4D40EE00128F7D0B0
:100D60006868226A00F48031914204D1616A00F41B
:100D70007010884201D00120EAE70020E8E7000077
:100D80000010024000004242800442420C00002059
:100D90000070004010B5401EB0F1807F01D30120EB
:100DA00010BD4FF0E02460610F21601700F084FC5B
:100DB0000020A06107202061002010BD18B5034667
:100DC00090F84200202801D0022018BD61B15AB12C
:100DD0000120186300205863184600F001FC002829
:100DE000F3D1196B012901D0012018BD19680A68D7
:100DF0004968009119680C3151E8002F42F0100247
:100E000041E80024002CF5D118BD000000680E4A0E
:100E100082B0904216D10D484180818842881144A9
:100E20008180012101700A480068016841680091D1
:100E30000168406800904FF400720649044802B00F
:100E4000FFF7BCBF02B0704700380140100000201F
:100E50002C0000209800002070470000F8B50168C1
:100E600004460868CA684B6910F00F0F4FF0000580
:100E700059D003F0010602F49077374365D0C107DB
:100E800005D0D10503D5616C41F0010161644107D2
:100E900005D5D90703D0616C41F002016164810777
:100EA00005D5D90703D0616C41F0040161640107E5
:100EB00007D502F02001314303D0616C41F00801F5
:100EC0006164616C00293AD0800604D5900602D591
:100ED000204600F0C7FA20684069616CC0F38010BA
:100EE000090700D460B3204600F095FA20684069F5
:100EF000400621D52068143050E8001F21F0400141
:100F000040E80012002AF5D1E06BA8B16D494163B9
:100F1000E06BFFF735FA002811D0E06B416B01B0B0
:100F2000BDE8F040084783060FD593060DD520464F
:100F3000BDE8F84000F096BA2046FFF78DFFF8BDF7
:100F40002046FFF789FF6564F8BD266B2023012E3C
:100F50007CD1C6067AD5D60678D508684868009050
:100F600048694FF00206400640D5E16B08684068CA
:100F70000004000CE8D0A28D8242E5D9E0858869A2
:100F800020282DD020680C3050E8001F21F48071FB
:100F900040E80012002AF5D12068143050E8001F04
:100FA00021F0010140E80012002AF5D12068143038
:100FB00050E8001F21F0400140E80012002AF5D15E
:100FC00084F84230256320680C3050E8001F21F07F
:100FD000100140E80012002AF5D1E06BFFF7ACF9F0
:100FE0006663A08DE18D401A81B22AE0A08DE18D6B
:100FF000401A81B2E08D0028A6D00029A4D0226832
:101000000C3252E8000F20F4907042E80007002FE5
:10101000F5D12068143050E8002F22F0010240E89A
:101020000027002FF5D184F84230256320680C306A
:1010300050E8002F22F0100240E80023002BF5D1E9
:1010400066632046FFF7E2FEF8BDFFE705062BD5F5
:10105000150629D594F841002128F5D1A068B0F5EE
:10106000805F01D12069B0B1206A411C21622168F2
:1010700000784860E08C401E0004000CE084E3D15E
:101080002068C16821F08001C1602068C16841F01A
:101090004001C160D8E7206A0088C0F308004860BA
:1010A000206A801C2062E5E74006CDD55006CBD5EE
:1010B000CA68204622F04002CA6084F8413000F03D
:1010C000C6F8C1E70714000870B5040004D094F80E
:1010D0004100002510B106E0012070BD84F84050A9
:1010E000204600F023F8242084F841002068C168DD
:1010F00021F40051C160204600F016FA2068016911
:1011000021F4904101612068416921F02A01416187
:101110002068C16841F40051C1606564202084F8F2
:10112000410084F842006563002070BD30B585B091
:1011300000240094019402940394006818498842A2
:101140002CD11848816941F480418161816901F4A1
:1011500080410491816941F0040181618069124DEF
:1011600000F0040004904FF4007000900220019001
:101170000320039069462846FFF710FA2815CDE9A9
:101180000004694628460294FFF708FA0022052168
:101190002520FFF761FB2520FFF750FB05B030BD90
:1011A00000380140001002400008014070472DE95E
:1011B000F843044690F84100984616460D4620280C
:1011C00002D00220BDE8F88385B17EB100206064C2
:1011D000212084F84100FFF7D1FAA6848146E684F5
:1011E000A0682027B0F5805F02D003E00120E9E786
:1011F000206910B12E4600250EE000260CE080216B
:10120000204600F008FAA8B9C6B116F8010B21680B
:101210004860E08C401EE084E08C4B464FF00002BA
:10122000CDF800800028EAD14FF04001204600F0C0
:10123000F2F940B184F841700320C3E735F8020B9E
:10124000C0F30800E3E784F841700020BAE7704774
:10125000FEE70000074882B000680168416800911D
:101260000168406800904FF400720349014802B0E1
:10127000FFF7A4BD2C0000209800002070B50F4D92
:101280002E68281D04688013B0EB164F01D00CA007
:1012900002E0AC4204D20DA0BDE8704000F0FCB901
:1012A00072B6FFF7B9F80E48056021463046FEF7E2
:1012B00029FFA446BDE870406047000000280008F0
:1012C000D5BBB5D8D6B7B4EDCEF30A00B8B4CEBB13
:1012D000D6D0B6CFB5D8D6B7B4EDCEF30A0000005D
:1012E00008ED00E0094808B5816941F020018161FD
:1012F000816901F020010091816941F0040181615F
:10130000806900F00400009008BD00000010024059
:101310000C4810B50A4901604FF4E13141600021E9
:1013200081600C22C160C0E904128161C161FFF7D4
:10133000CBFE002803D0BDE81040FEF770BF10BD03
:10134000003801402C000020FEE7000006488168BC
:101350004A1C8260B1F57A7F04D300218160C168A4
:10136000491CC1607047000018000020FEE770476C
:10137000B0F80032B0F80222934201D10020704749
:10138000825C0A70B0F80212491CC1F30801A0F88F
:10139000021201207047704710B5FFF7D7FFBDE874
:1013A0001040FFF7F1B930B58FB028216846FEF73D
:1013B000D6FE14210AA8FEF7D2FE01210804CDE9C9
:1013C00000100024029402250491CDE907504FF447
:1013D000E01009906846FFF74DFB08B172B6FEE7D2
:1013E0000F20CDE90A054FF48060CDE90C400221C1
:1013F0000AA80E94FFF762FA002801D072B6FEE741
:101400000FB030BD704710B5406A0021C185C1845E
:10141000FFF722FD10BD01680C3151E8002F22F4C6
:10142000907241E80023002BF5D10168143151E896
:10143000002F22F0010241E80023002BF5D1016BBF
:10144000012909D101680C3151E8002F22F0100266
:1014500041E80023002BF5D1202180F84210002123
:101460000163704708B590F84210222901D002208C
:1014700008BD82684FF480539A4201D1016921B1BD
:10148000816A9A421BD04AB10AE00268816A5268B6
:10149000C2F308020A80816A891C08E0026972B1FD
:1014A0000268526802F07F020A70816A491C8162F8
:1014B000C18D491E0904090CC18503D01BE00268D7
:1014C0005268F1E70168CA6822F02002CA60016828
:1014D000CA6822F48072CA6001684A6922F0010277
:1014E0004A61202180F8421000214163026B012AE9
:1014F00003D0FFF75BFE002008BD016301680C31DB
:1015000051E8002F22F0100241E80023002BF5D112
:1015100001680A68D20602D50A6849680091818D7F
:10152000FFF774FCE7E7000070B504460068016946
:10153000E26821F44051114301612169A068084328
:10154000616908432168CA6841F20C639A43024307
:10155000CA6020684169A26921F440711143416168
:101560001E492068884202D1FFF74EFA01E0FFF7DA
:101570003BFA00EBC00101EB0012606864218000BF
:10158000B2FBF0F3B3FBF1F36FF018067343B2FB59
:10159000F0F5B2FBF0F605EB8305322303EB0515FE
:1015A000B5FBF1F5B6FBF1F605F0F00505EB061518
:1015B000B2FBF0F6B2FBF0F0B0FBF1F06FF0180206
:1015C000504306EB800003EB0010B0FBF1F0216804
:1015D00000F00F002844886070BD00000038014012
:1015E00081628285C28500214164222180F84210F7
:1015F000016921B10168CA6842F48072CA60016859
:101600004A6942F001024A610068C16841F0200164
:10161000C160002070472DE9F843984617460D46F3
:101620000446089E24E0701C22D0FFF7A7F8A0EB28
:101630000800B0421AD8CEB12068C168490717D552
:10164000802D15D0402D13D00168C94309070FD450
:1016500001680025406800902046FFF7DCFE082066
:10166000606484F840500120BDE8F8830320FBE764
:101670002068006835EA000004D00020B842D2D0CB
:101680000020F1E70120F9E70148FFF7E7BB000080
:101690002C000020FEE700000FB4054B10B503A995
:1016A000044A029800F028F810BC5DF814FB000012
:1016B000C51D0008280000200907090E002804DBCA
:1016C00000F1E02080F80014704700F00F0000F1F6
:1016D000E02080F8141D704702E008C8121F08C1FE
:1016E000002AFAD170477047002001E001C1121FA3
:1016F000002AFBD1704700002DE9FF4F8BB09A46BE
:101700000F460446002606E025280BD052460D99C8
:101710009047641C761C20780028F5D10FB0304625
:10172000BDE8F08F0025A94601227D4900E0054370
:1017300014F8013F203B02FA03F00842F7D1207869
:101740002E2817D114F8010F45F004052A280ED0D1
:101750006FF02F022078A0F1300109290AD809EB97
:10176000890102EB410100EB0109641CF2E757F823
:10177000049B641C20786C280DD004DC4C2812D00B
:101780006A2811D104E074280DD07A280CD10AE01F
:1017900045F4001507E0617845F48015814202D1D7
:1017A000641C05F58015641C207869283ED006DC91
:1017B0000028B3D063280BD0642804D136E0732806
:1017C00010D075285CD052460D999047761CA5E044
:1017D00017F8040B8DF8000000208DF80100E84692
:1017E000012003E057F8048B4FF0FF3069074FF0FA
:1017F000000501D40AE06D1C4D450DDA8542FADB87
:1018000018F805100029F6D106E06D1C8542FCDBB6
:1018100018F805100029F8D12E4404E018F8010B3F
:1018200052460D9990476D1EF8D277E000200A903D
:10183000C5F302504FF00A0B02280CD001CFC1179C
:10184000021E71F100020CDA0023D0EB030063EBFF
:1018500001012D2208E0FF1D27F00707F7E802012C
:10186000EEE72A0504D52B228DF82420012203E07F
:10187000EA070FD02022F7E70DF12008089218E0C0
:1018800000200A90C5F302504FF00A0B022803D043
:1018900001CF00210022EFE7FF1D27F00707F7E83F
:1018A0000201F7E75A460A9BFEF764FC303208F85B
:1018B000012D50EA0102F5D1ADEB080000F1200B3B
:1018C000680701D44FF00109D94502DDA9EB0B00EF
:1018D00000E000208146002506E009A85246405D50
:1018E0000D9990476D1C761C08988542F5DB04E045
:1018F000302052460D999047761CB9F10001A9F1AC
:101900000109F5DC05E018F8010B52460D999047E6
:10191000761CBBF10001ABF1010BF4DC641CFAE6B0
:10192000092801002DE9F047B14C042720466178D1
:10193000C268DFF8C082B04E4088002586B04FF004
:10194000010905295CD2DFE801F003206AA8FD0047
:10195000A1684FF4FA70B1FBF0F300FB131020B94B
:10196000C2F10501A5A0FFF797FEE068052800D3A6
:10197000677098F800104046012903D10570658012
:1019800084F8019006B0BDE8F087A6480178752973
:1019900031D1417870292ED1817867292BD1C17836
:1019A000722928D10179612925D14179642922D16F
:1019B000817965291FD1C1793A291CD1017A22295F
:1019C00019D1002109226FF02F070DE0835CA3F1EC
:1019D000300CBCF1090F0BD801EB810107EB410181
:1019E0001944521C89B292B233889A42EED3C9E7A5
:1019F000D8B2222805D08CA0FFF74EFE00F0FCF9EB
:101A0000F4E092486180A0F80052A0F8025290A041
:101A1000FFF742FE97A0FFF73FFE02203BE0A04603
:101A200000F52050840A0A272246394697A0FFF77E
:101A300033FE9DA0FFF730FEFEF79CFD4FF0006ADD
:101A400016E039469DA0FFF727FE0AEB8720019597
:101A5000CDE90309694601A8FEF7EEFC30B139462D
:101A60009CA0009AFFF718FEFEF7D9FB7F1CBFB2BF
:101A7000A742E6D9FEF734FDA0A0FFF70DFE4FF414
:101A800000716848FEF76BFB35804446A8F80450A7
:101A9000FEF770FD0320607074E798F8003041464F
:101AA000DFF87CA2012B13D033885149002B8988A1
:101AB0005CD0032A5AD9421A012A31D081424DD131
:101AC000FEF70EFD318897A0FFF7E6FD67705FE037
:101AD000A9460D7031889AA0FFF7DEFD9E485B4D48
:101AE000DFF840810788002613E000BFB5F8000248
:101AF000B5F80232411C18F80620C1F308018B42E8
:101B000002D1FEF78CFB02E02A54A5F80012761CE5
:101B1000B6B2BE42EAD3C4F80C90C4F8089037E0DD
:101B200033494A48FFF724FC08B9FEF778FB2078D0
:101B3000A18840F47F42002351440120FEF7DAFCE3
:101B400020B900E04AE0A088401CA080FEF7C8FC55
:101B5000318874A0FFF7A0FD677013E7FEF7C0FCA3
:101B6000628831887DA0FFF797FD07E081B9052ADB
:101B70000ED9FEF7B5FC85A0FFF78EFD00F03CF90D
:101B8000657005E0A088801CA08001E0FEF747FB9F
:101B90002E4DB5F80012B5F80202814201D3081AA1
:101BA00002E0C0F50070084480B20228D5D369462F
:101BB0002846FFF7DDFB01A92846FFF7D9FB9DF872
:101BC00000009DF80410002340EA0122A1880120B2
:101BD0005144FEF78FFC0028D8D1D3E774A0FFF75B
:101BE0005BFDFFF74BFB00F007F965706570C9E618
:101BF000180000201000002014000020B5B9BCC659
:101C0000CAB120256420C3EBBAF3D7D4B6AFCCF861
:101C1000D7AAB5BDD3A6D3C3B3CCD0F22E2E2E0AED
:101C20000000000098000020CAFDBEDDB0FCB3A497
:101C3000B6C8B8F1CABDB2BBD5FDC8B7A3ACB7B57D
:101C4000BBD8B5C8B4FDD7B4CCAC0A00980200200C
:101C5000D2D1C8B7C8CFBCB4BDABBDD3CADCB5C444
:101C6000CAFDBEDDB0FCB3A4B6C8CEAA3A20256436
:101C70000A000000BDF8C8EBB2C1B3FD466C617349
:101C800068D7B4CCAC2E2E2E0A000000B2C1B3FD32
:101C9000466C617368D2B3B7B6CEA73A20256420EC
:101CA0002D2025640A000000BFAACABCB2C1B3FD42
:101CB000466C6173682E2E2E0A000000D5FDD4DA22
:101CC000B2C1B3FD466C617368D2B33A20256C751E
:101CD0000A000000466C617368B2C1B3FDCAA7B0C8
:101CE000DCA3ACD2B3BAC53A20256C752C20B4ED78
:101CF000CEF3C2EB3A20256C750A0000466C617386
:101D000068B2C1B3FDCDEAB3C9A3ACBDF8C8EBBDA1
:101D1000D3CAD5CAFDBEDDD7B4CCAC2E2E2E0A0058
:101D200000280008CAFDBEDDD0B4C8EBCDEAB3C9B7
:101D3000A3ACB3A4B6C8D5FDC8B73A2025640A0041
:101D4000BDD3CAD5B5BDCAFDBEDDB0FCA3ACB3A43E
:101D5000B6C83A2025640A0012000020CAFDBEDD84
:101D6000B0FCBDD3CAD5CDEAB3C9A3ACB5ABB3A45F
:101D7000B6C8B2BBD5FDC8B73A2025642C20C6DA58
:101D8000CDFBB3A4B6C83A2025640A00CEB4BDD3B7
:101D9000CAD5B5BDC8CEBACECAFDBEDDB0FCA3ACB7
:101DA000B7B5BBD8B5C8B4FDD7B4CCAC0A000000F9
:101DB000D5FDD4DACCF8D7AAD6C14150502E2E2E5C
:101DC0000A00000013B54FF0FF33012269460248B4
:101DD000FFF7EDF900981CBD2C000020FEF7DCFC9D
:101DE000FFF7E1FAFFF77EFAFFF792FAFFF732FA10
:101DF000FFF798FDFCE7000005490020054AC86090
:101E00008860108088804FF400710348FEF7A7B9FE
:101E10001800002014000020980000200102020396
:101E20000405060708090A0B0C0D0E0F1010000020
:101E3000000000000000010203040607080900007A
:101E40000000010203040000681E000800000020DA
:101E50002C000000D8160008941E00082C0000205A
:101E600074080000E81600080100000010000000DF
:101E70000000000000127A000000000000000000D6
:101E80000000000000000000000000000000000052
:041E9000000000004E
:04000005080000ED02
:00000001FF
